{
  "contractName": "CeloHelpi",
  "abi": [
    {
      "inputs": [
        {
          "internalType": "address",
          "name": "_liquidityMiningAddress",
          "type": "address"
        },
        {
          "internalType": "address",
          "name": "_stakingAddress",
          "type": "address"
        },
        {
          "internalType": "address",
          "name": "_marketingAddress",
          "type": "address"
        },
        {
          "internalType": "address",
          "name": "_factoryAddress",
          "type": "address"
        },
        {
          "internalType": "address",
          "name": "_weth",
          "type": "address"
        }
      ],
      "stateMutability": "nonpayable",
      "type": "constructor"
    },
    {
      "anonymous": false,
      "inputs": [
        {
          "indexed": true,
          "internalType": "address",
          "name": "owner",
          "type": "address"
        },
        {
          "indexed": true,
          "internalType": "address",
          "name": "spender",
          "type": "address"
        },
        {
          "indexed": false,
          "internalType": "uint256",
          "name": "value",
          "type": "uint256"
        }
      ],
      "name": "Approval",
      "type": "event"
    },
    {
      "anonymous": false,
      "inputs": [
        {
          "indexed": true,
          "internalType": "address",
          "name": "previousOwner",
          "type": "address"
        },
        {
          "indexed": true,
          "internalType": "address",
          "name": "newOwner",
          "type": "address"
        }
      ],
      "name": "OwnershipTransferred",
      "type": "event"
    },
    {
      "anonymous": false,
      "inputs": [
        {
          "indexed": true,
          "internalType": "address",
          "name": "from",
          "type": "address"
        },
        {
          "indexed": true,
          "internalType": "address",
          "name": "to",
          "type": "address"
        },
        {
          "indexed": false,
          "internalType": "uint256",
          "name": "value",
          "type": "uint256"
        }
      ],
      "name": "Transfer",
      "type": "event"
    },
    {
      "inputs": [],
      "name": "decimals",
      "outputs": [
        {
          "internalType": "uint8",
          "name": "",
          "type": "uint8"
        }
      ],
      "stateMutability": "view",
      "type": "function",
      "constant": true
    },
    {
      "inputs": [],
      "name": "holdersTaxPermille",
      "outputs": [
        {
          "internalType": "uint256",
          "name": "",
          "type": "uint256"
        }
      ],
      "stateMutability": "view",
      "type": "function",
      "constant": true
    },
    {
      "inputs": [],
      "name": "liquidityMiningAddress",
      "outputs": [
        {
          "internalType": "address",
          "name": "",
          "type": "address"
        }
      ],
      "stateMutability": "view",
      "type": "function",
      "constant": true
    },
    {
      "inputs": [],
      "name": "liquidityMiningTaxPermille",
      "outputs": [
        {
          "internalType": "uint256",
          "name": "",
          "type": "uint256"
        }
      ],
      "stateMutability": "view",
      "type": "function",
      "constant": true
    },
    {
      "inputs": [],
      "name": "marketingAddress",
      "outputs": [
        {
          "internalType": "address",
          "name": "",
          "type": "address"
        }
      ],
      "stateMutability": "view",
      "type": "function",
      "constant": true
    },
    {
      "inputs": [],
      "name": "marketingTaxPermille",
      "outputs": [
        {
          "internalType": "uint256",
          "name": "",
          "type": "uint256"
        }
      ],
      "stateMutability": "view",
      "type": "function",
      "constant": true
    },
    {
      "inputs": [],
      "name": "name",
      "outputs": [
        {
          "internalType": "string",
          "name": "",
          "type": "string"
        }
      ],
      "stateMutability": "view",
      "type": "function",
      "constant": true
    },
    {
      "inputs": [],
      "name": "owner",
      "outputs": [
        {
          "internalType": "address",
          "name": "",
          "type": "address"
        }
      ],
      "stateMutability": "view",
      "type": "function",
      "constant": true
    },
    {
      "inputs": [],
      "name": "renounceOwnership",
      "outputs": [],
      "stateMutability": "nonpayable",
      "type": "function"
    },
    {
      "inputs": [],
      "name": "stakingAddress",
      "outputs": [
        {
          "internalType": "address",
          "name": "",
          "type": "address"
        }
      ],
      "stateMutability": "view",
      "type": "function",
      "constant": true
    },
    {
      "inputs": [],
      "name": "stakingTaxPermille",
      "outputs": [
        {
          "internalType": "uint256",
          "name": "",
          "type": "uint256"
        }
      ],
      "stateMutability": "view",
      "type": "function",
      "constant": true
    },
    {
      "inputs": [],
      "name": "symbol",
      "outputs": [
        {
          "internalType": "string",
          "name": "",
          "type": "string"
        }
      ],
      "stateMutability": "view",
      "type": "function",
      "constant": true
    },
    {
      "inputs": [],
      "name": "totalTaxPermille",
      "outputs": [
        {
          "internalType": "uint256",
          "name": "",
          "type": "uint256"
        }
      ],
      "stateMutability": "view",
      "type": "function",
      "constant": true
    },
    {
      "inputs": [
        {
          "internalType": "address",
          "name": "newOwner",
          "type": "address"
        }
      ],
      "name": "transferOwnership",
      "outputs": [],
      "stateMutability": "nonpayable",
      "type": "function"
    },
    {
      "inputs": [],
      "name": "totalSupply",
      "outputs": [
        {
          "internalType": "uint256",
          "name": "",
          "type": "uint256"
        }
      ],
      "stateMutability": "pure",
      "type": "function",
      "constant": true
    },
    {
      "inputs": [
        {
          "internalType": "address",
          "name": "account",
          "type": "address"
        }
      ],
      "name": "balanceOf",
      "outputs": [
        {
          "internalType": "uint256",
          "name": "",
          "type": "uint256"
        }
      ],
      "stateMutability": "view",
      "type": "function",
      "constant": true
    },
    {
      "inputs": [
        {
          "internalType": "address",
          "name": "recipient",
          "type": "address"
        },
        {
          "internalType": "uint256",
          "name": "amount",
          "type": "uint256"
        }
      ],
      "name": "transfer",
      "outputs": [
        {
          "internalType": "bool",
          "name": "",
          "type": "bool"
        }
      ],
      "stateMutability": "nonpayable",
      "type": "function"
    },
    {
      "inputs": [
        {
          "internalType": "address",
          "name": "owner",
          "type": "address"
        },
        {
          "internalType": "address",
          "name": "spender",
          "type": "address"
        }
      ],
      "name": "allowance",
      "outputs": [
        {
          "internalType": "uint256",
          "name": "",
          "type": "uint256"
        }
      ],
      "stateMutability": "view",
      "type": "function",
      "constant": true
    },
    {
      "inputs": [
        {
          "internalType": "address",
          "name": "spender",
          "type": "address"
        },
        {
          "internalType": "uint256",
          "name": "amount",
          "type": "uint256"
        }
      ],
      "name": "approve",
      "outputs": [
        {
          "internalType": "bool",
          "name": "",
          "type": "bool"
        }
      ],
      "stateMutability": "nonpayable",
      "type": "function"
    },
    {
      "inputs": [
        {
          "internalType": "address",
          "name": "sender",
          "type": "address"
        },
        {
          "internalType": "address",
          "name": "recipient",
          "type": "address"
        },
        {
          "internalType": "uint256",
          "name": "amount",
          "type": "uint256"
        }
      ],
      "name": "transferFrom",
      "outputs": [
        {
          "internalType": "bool",
          "name": "",
          "type": "bool"
        }
      ],
      "stateMutability": "nonpayable",
      "type": "function"
    },
    {
      "inputs": [
        {
          "internalType": "address",
          "name": "spender",
          "type": "address"
        },
        {
          "internalType": "uint256",
          "name": "addedValue",
          "type": "uint256"
        }
      ],
      "name": "increaseAllowance",
      "outputs": [
        {
          "internalType": "bool",
          "name": "",
          "type": "bool"
        }
      ],
      "stateMutability": "nonpayable",
      "type": "function"
    },
    {
      "inputs": [
        {
          "internalType": "address",
          "name": "spender",
          "type": "address"
        },
        {
          "internalType": "uint256",
          "name": "subtractedValue",
          "type": "uint256"
        }
      ],
      "name": "decreaseAllowance",
      "outputs": [
        {
          "internalType": "bool",
          "name": "",
          "type": "bool"
        }
      ],
      "stateMutability": "nonpayable",
      "type": "function"
    },
    {
      "inputs": [
        {
          "internalType": "address",
          "name": "account",
          "type": "address"
        }
      ],
      "name": "excludeFromFees",
      "outputs": [],
      "stateMutability": "nonpayable",
      "type": "function"
    },
    {
      "inputs": [
        {
          "internalType": "address",
          "name": "account",
          "type": "address"
        }
      ],
      "name": "includeInFees",
      "outputs": [],
      "stateMutability": "nonpayable",
      "type": "function"
    },
    {
      "inputs": [
        {
          "internalType": "address",
          "name": "account",
          "type": "address"
        }
      ],
      "name": "excludeFromRewards",
      "outputs": [],
      "stateMutability": "nonpayable",
      "type": "function"
    },
    {
      "inputs": [
        {
          "internalType": "address",
          "name": "account",
          "type": "address"
        }
      ],
      "name": "includeInRewards",
      "outputs": [],
      "stateMutability": "nonpayable",
      "type": "function"
    },
    {
      "inputs": [
        {
          "internalType": "uint256",
          "name": "rewardAmount",
          "type": "uint256"
        }
      ],
      "name": "calculateRewards",
      "outputs": [
        {
          "internalType": "uint256",
          "name": "",
          "type": "uint256"
        }
      ],
      "stateMutability": "view",
      "type": "function",
      "constant": true
    }
  ],
  "bytecode": "0x608060405269d3c21bcecceda10000006000196200001e91906200273b565b6000196200002d919062002674565b600755601e600855600c6009556005600a556008600b556005600c553480156200005657600080fd5b50604051620066333803806200663383398181016040528101906200007c9190620022be565b60006200008e620004ff60201b60201c565b9050806000806101000a81548173ffffffffffffffffffffffffffffffffffffffff021916908373ffffffffffffffffffffffffffffffffffffffff1602179055508073ffffffffffffffffffffffffffffffffffffffff16600073ffffffffffffffffffffffffffffffffffffffff167f8be0079c531659141344cd1fd0a4f28419497f9722a3daafe3b4186f6b6457e060405160405180910390a35084600d60006101000a81548173ffffffffffffffffffffffffffffffffffffffff021916908373ffffffffffffffffffffffffffffffffffffffff16021790555083600e60006101000a81548173ffffffffffffffffffffffffffffffffffffffff021916908373ffffffffffffffffffffffffffffffffffffffff16021790555082600f60006101000a81548173ffffffffffffffffffffffffffffffffffffffff021916908373ffffffffffffffffffffffffffffffffffffffff1602179055506007546001600062000206620004ff60201b60201c565b73ffffffffffffffffffffffffffffffffffffffff1673ffffffffffffffffffffffffffffffffffffffff1681526020019081526020016000208190555062000254620004ff60201b60201c565b73ffffffffffffffffffffffffffffffffffffffff16600073ffffffffffffffffffffffffffffffffffffffff167fddf252ad1be2c89b69c2b068fc378daa952ba7f163c4a11628f55a4df523b3ef69d3c21bcecceda1000000604051620002bd919062002550565b60405180910390a3620002f8600d60009054906101000a900473ffffffffffffffffffffffffffffffffffffffff166200050760201b60201c565b6200032b600d60009054906101000a900473ffffffffffffffffffffffffffffffffffffffff166200068160201b60201c565b6200035e600e60009054906101000a900473ffffffffffffffffffffffffffffffffffffffff166200050760201b60201c565b62000391600e60009054906101000a900473ffffffffffffffffffffffffffffffffffffffff166200068160201b60201c565b620003c4600f60009054906101000a900473ffffffffffffffffffffffffffffffffffffffff166200050760201b60201c565b620003f7600f60009054906101000a900473ffffffffffffffffffffffffffffffffffffffff166200068160201b60201c565b620004176200040b620004ff60201b60201c565b6200050760201b60201c565b620004376200042b620004ff60201b60201c565b6200068160201b60201c565b62000475600d60009054906101000a900473ffffffffffffffffffffffffffffffffffffffff166969e10de76676d08000006200093b60201b60201c565b50620004b4600e60009054906101000a900473ffffffffffffffffffffffffffffffffffffffff16692c781f708c509f4000006200093b60201b60201c565b50620004f3600f60009054906101000a900473ffffffffffffffffffffffffffffffffffffffff16690ed2b525841adfc000006200093b60201b60201c565b505050505050620029ee565b600033905090565b62000517620004ff60201b60201c565b73ffffffffffffffffffffffffffffffffffffffff166200053d6200096960201b60201c565b73ffffffffffffffffffffffffffffffffffffffff161462000596576040517f08c379a00000000000000000000000000000000000000000000000000000000081526004016200058d90620024c8565b60405180910390fd5b600460008273ffffffffffffffffffffffffffffffffffffffff1673ffffffffffffffffffffffffffffffffffffffff16815260200190815260200160002060009054906101000a900460ff161562000626576040517f08c379a00000000000000000000000000000000000000000000000000000000081526004016200061d90620024a6565b60405180910390fd5b6001600460008373ffffffffffffffffffffffffffffffffffffffff1673ffffffffffffffffffffffffffffffffffffffff16815260200190815260200160002060006101000a81548160ff02191690831515021790555050565b62000691620004ff60201b60201c565b73ffffffffffffffffffffffffffffffffffffffff16620006b76200096960201b60201c565b73ffffffffffffffffffffffffffffffffffffffff161462000710576040517f08c379a00000000000000000000000000000000000000000000000000000000081526004016200070790620024c8565b60405180910390fd5b600560008273ffffffffffffffffffffffffffffffffffffffff1673ffffffffffffffffffffffffffffffffffffffff16815260200190815260200160002060009054906101000a900460ff1615620007a0576040517f08c379a0000000000000000000000000000000000000000000000000000000008152600401620007979062002484565b60405180910390fd5b6000600160008373ffffffffffffffffffffffffffffffffffffffff1673ffffffffffffffffffffffffffffffffffffffff1681526020019081526020016000205411156200087d5762000839600160008373ffffffffffffffffffffffffffffffffffffffff1673ffffffffffffffffffffffffffffffffffffffff168152602001908152602001600020546200099260201b60201c565b600260008373ffffffffffffffffffffffffffffffffffffffff1673ffffffffffffffffffffffffffffffffffffffff168152602001908152602001600020819055505b6001600560008373ffffffffffffffffffffffffffffffffffffffff1673ffffffffffffffffffffffffffffffffffffffff16815260200190815260200160002060006101000a81548160ff0219169083151502179055506006819080600181540180825580915050600190039060005260206000200160009091909190916101000a81548173ffffffffffffffffffffffffffffffffffffffff021916908373ffffffffffffffffffffffffffffffffffffffff16021790555050565b60006200095f62000951620004ff60201b60201c565b848462000a1260201b60201c565b6001905092915050565b60008060009054906101000a900473ffffffffffffffffffffffffffffffffffffffff16905090565b6000600754821115620009dc576040517f08c379a0000000000000000000000000000000000000000000000000000000008152600401620009d3906200252e565b60405180910390fd5b6000620009ee6200128b60201b60201c565b905062000a0a8184620012c560201b620017141790919060201c565b915050919050565b600073ffffffffffffffffffffffffffffffffffffffff168373ffffffffffffffffffffffffffffffffffffffff16141562000a85576040517f08c379a000000000000000000000000000000000000000000000000000000000815260040162000a7c906200250c565b60405180910390fd5b600073ffffffffffffffffffffffffffffffffffffffff168273ffffffffffffffffffffffffffffffffffffffff16141562000af8576040517f08c379a000000000000000000000000000000000000000000000000000000000815260040162000aef9062002462565b60405180910390fd5b6000811162000b3e576040517f08c379a000000000000000000000000000000000000000000000000000000000815260040162000b3590620024ea565b60405180910390fd5b60006008549050600460008573ffffffffffffffffffffffffffffffffffffffff1673ffffffffffffffffffffffffffffffffffffffff16815260200190815260200160002060009054906101000a900460ff168062000be75750600460008473ffffffffffffffffffffffffffffffffffffffff1673ffffffffffffffffffffffffffffffffffffffff16815260200190815260200160002060009054906101000a900460ff165b1562000bfb57600060088190555062000f50565b600062000c346103e862000c2060095486620012dd60201b6200172a1790919060201c565b620012c560201b620017141790919060201c565b9050600062000c6f6103e862000c5b600a5487620012dd60201b6200172a1790919060201c565b620012c560201b620017141790919060201c565b9050600062000caa6103e862000c96600c5488620012dd60201b6200172a1790919060201c565b620012c560201b620017141790919060201c565b905062000d278360026000600d60009054906101000a900473ffffffffffffffffffffffffffffffffffffffff1673ffffffffffffffffffffffffffffffffffffffff1673ffffffffffffffffffffffffffffffffffffffff16815260200190815260200160002054620012f560201b620017401790919060201c565b60026000600d60009054906101000a900473ffffffffffffffffffffffffffffffffffffffff1673ffffffffffffffffffffffffffffffffffffffff1673ffffffffffffffffffffffffffffffffffffffff1681526020019081526020016000208190555062000e078260026000600e60009054906101000a900473ffffffffffffffffffffffffffffffffffffffff1673ffffffffffffffffffffffffffffffffffffffff1673ffffffffffffffffffffffffffffffffffffffff16815260200190815260200160002054620012f560201b620017401790919060201c565b60026000600e60009054906101000a900473ffffffffffffffffffffffffffffffffffffffff1673ffffffffffffffffffffffffffffffffffffffff1673ffffffffffffffffffffffffffffffffffffffff1681526020019081526020016000208190555062000ee78160026000600f60009054906101000a900473ffffffffffffffffffffffffffffffffffffffff1673ffffffffffffffffffffffffffffffffffffffff1673ffffffffffffffffffffffffffffffffffffffff16815260200190815260200160002054620012f560201b620017401790919060201c565b60026000600f60009054906101000a900473ffffffffffffffffffffffffffffffffffffffff1673ffffffffffffffffffffffffffffffffffffffff1673ffffffffffffffffffffffffffffffffffffffff168152602001908152602001600020819055505050505b600560008573ffffffffffffffffffffffffffffffffffffffff1673ffffffffffffffffffffffffffffffffffffffff16815260200190815260200160002060009054906101000a900460ff16801562000ff45750600560008473ffffffffffffffffffffffffffffffffffffffff1673ffffffffffffffffffffffffffffffffffffffff16815260200190815260200160002060009054906101000a900460ff16155b1562001013576200100d8484846200130d60201b60201c565b62001273565b600560008573ffffffffffffffffffffffffffffffffffffffff1673ffffffffffffffffffffffffffffffffffffffff16815260200190815260200160002060009054906101000a900460ff16158015620010b75750600560008473ffffffffffffffffffffffffffffffffffffffff1673ffffffffffffffffffffffffffffffffffffffff16815260200190815260200160002060009054906101000a900460ff165b15620010d657620010d08484846200159360201b60201c565b62001272565b600560008573ffffffffffffffffffffffffffffffffffffffff1673ffffffffffffffffffffffffffffffffffffffff16815260200190815260200160002060009054906101000a900460ff161580156200117b5750600560008473ffffffffffffffffffffffffffffffffffffffff1673ffffffffffffffffffffffffffffffffffffffff16815260200190815260200160002060009054906101000a900460ff16155b156200119a57620011948484846200181960201b60201c565b62001271565b600560008573ffffffffffffffffffffffffffffffffffffffff1673ffffffffffffffffffffffffffffffffffffffff16815260200190815260200160002060009054906101000a900460ff1680156200123d5750600560008473ffffffffffffffffffffffffffffffffffffffff1673ffffffffffffffffffffffffffffffffffffffff16815260200190815260200160002060009054906101000a900460ff165b156200125c576200125684848462001a0360201b60201c565b62001270565b6200126f8484846200181960201b60201c565b5b5b5b5b60085481146200128557806008819055505b50505050565b6000806000620012a062001d2560201b60201c565b91509150620012be8183620012c560201b620017141790919060201c565b9250505090565b60008183620012d59190620025db565b905092915050565b60008183620012ed919062002613565b905092915050565b600081836200130591906200257e565b905092915050565b6000806000806200132485620020b260201b60201c565b5093509350935093506200138685600260008a73ffffffffffffffffffffffffffffffffffffffff1673ffffffffffffffffffffffffffffffffffffffff168152602001908152602001600020546200212260201b620017561790919060201c565b600260008973ffffffffffffffffffffffffffffffffffffffff1673ffffffffffffffffffffffffffffffffffffffff168152602001908152602001600020819055506200142284600160008a73ffffffffffffffffffffffffffffffffffffffff1673ffffffffffffffffffffffffffffffffffffffff168152602001908152602001600020546200212260201b620017561790919060201c565b600160008973ffffffffffffffffffffffffffffffffffffffff1673ffffffffffffffffffffffffffffffffffffffff16815260200190815260200160002081905550620014be83600160008973ffffffffffffffffffffffffffffffffffffffff1673ffffffffffffffffffffffffffffffffffffffff16815260200190815260200160002054620012f560201b620017401790919060201c565b600160008873ffffffffffffffffffffffffffffffffffffffff1673ffffffffffffffffffffffffffffffffffffffff168152602001908152602001600020819055506200151d826007546200212260201b620017561790919060201c565b6007819055508573ffffffffffffffffffffffffffffffffffffffff168773ffffffffffffffffffffffffffffffffffffffff167fddf252ad1be2c89b69c2b068fc378daa952ba7f163c4a11628f55a4df523b3ef8360405162001582919062002550565b60405180910390a350505050505050565b600080600080620015aa85620020b260201b60201c565b5093509350935093506200160c84600160008a73ffffffffffffffffffffffffffffffffffffffff1673ffffffffffffffffffffffffffffffffffffffff168152602001908152602001600020546200212260201b620017561790919060201c565b600160008973ffffffffffffffffffffffffffffffffffffffff1673ffffffffffffffffffffffffffffffffffffffff16815260200190815260200160002081905550620016a881600260008973ffffffffffffffffffffffffffffffffffffffff1673ffffffffffffffffffffffffffffffffffffffff16815260200190815260200160002054620012f560201b620017401790919060201c565b600260008873ffffffffffffffffffffffffffffffffffffffff1673ffffffffffffffffffffffffffffffffffffffff168152602001908152602001600020819055506200174483600160008973ffffffffffffffffffffffffffffffffffffffff1673ffffffffffffffffffffffffffffffffffffffff16815260200190815260200160002054620012f560201b620017401790919060201c565b600160008873ffffffffffffffffffffffffffffffffffffffff1673ffffffffffffffffffffffffffffffffffffffff16815260200190815260200160002081905550620017a3826007546200212260201b620017561790919060201c565b6007819055508573ffffffffffffffffffffffffffffffffffffffff168773ffffffffffffffffffffffffffffffffffffffff167fddf252ad1be2c89b69c2b068fc378daa952ba7f163c4a11628f55a4df523b3ef8360405162001808919062002550565b60405180910390a350505050505050565b6000806000806200183085620020b260201b60201c565b5093509350935093506200189284600160008a73ffffffffffffffffffffffffffffffffffffffff1673ffffffffffffffffffffffffffffffffffffffff168152602001908152602001600020546200212260201b620017561790919060201c565b600160008973ffffffffffffffffffffffffffffffffffffffff1673ffffffffffffffffffffffffffffffffffffffff168152602001908152602001600020819055506200192e83600160008973ffffffffffffffffffffffffffffffffffffffff1673ffffffffffffffffffffffffffffffffffffffff16815260200190815260200160002054620012f560201b620017401790919060201c565b600160008873ffffffffffffffffffffffffffffffffffffffff1673ffffffffffffffffffffffffffffffffffffffff168152602001908152602001600020819055506200198d826007546200212260201b620017561790919060201c565b6007819055508573ffffffffffffffffffffffffffffffffffffffff168773ffffffffffffffffffffffffffffffffffffffff167fddf252ad1be2c89b69c2b068fc378daa952ba7f163c4a11628f55a4df523b3ef83604051620019f2919062002550565b60405180910390a350505050505050565b60008060008062001a1a85620020b260201b60201c565b50935093509350935062001a7c85600260008a73ffffffffffffffffffffffffffffffffffffffff1673ffffffffffffffffffffffffffffffffffffffff168152602001908152602001600020546200212260201b620017561790919060201c565b600260008973ffffffffffffffffffffffffffffffffffffffff1673ffffffffffffffffffffffffffffffffffffffff1681526020019081526020016000208190555062001b1884600160008a73ffffffffffffffffffffffffffffffffffffffff1673ffffffffffffffffffffffffffffffffffffffff168152602001908152602001600020546200212260201b620017561790919060201c565b600160008973ffffffffffffffffffffffffffffffffffffffff1673ffffffffffffffffffffffffffffffffffffffff1681526020019081526020016000208190555062001bb481600260008973ffffffffffffffffffffffffffffffffffffffff1673ffffffffffffffffffffffffffffffffffffffff16815260200190815260200160002054620012f560201b620017401790919060201c565b600260008873ffffffffffffffffffffffffffffffffffffffff1673ffffffffffffffffffffffffffffffffffffffff1681526020019081526020016000208190555062001c5083600160008973ffffffffffffffffffffffffffffffffffffffff1673ffffffffffffffffffffffffffffffffffffffff16815260200190815260200160002054620012f560201b620017401790919060201c565b600160008873ffffffffffffffffffffffffffffffffffffffff1673ffffffffffffffffffffffffffffffffffffffff1681526020019081526020016000208190555062001caf826007546200212260201b620017561790919060201c565b6007819055508573ffffffffffffffffffffffffffffffffffffffff168773ffffffffffffffffffffffffffffffffffffffff167fddf252ad1be2c89b69c2b068fc378daa952ba7f163c4a11628f55a4df523b3ef8360405162001d14919062002550565b60405180910390a350505050505050565b60008060006007549050600069d3c21bcecceda1000000905060005b6006805490508110156200205c5782600160006006848154811062001d8f577f4e487b7100000000000000000000000000000000000000000000000000000000600052603260045260246000fd5b9060005260206000200160009054906101000a900473ffffffffffffffffffffffffffffffffffffffff1673ffffffffffffffffffffffffffffffffffffffff1673ffffffffffffffffffffffffffffffffffffffff16815260200190815260200160002054118062001ea5575081600260006006848154811062001e3d577f4e487b7100000000000000000000000000000000000000000000000000000000600052603260045260246000fd5b9060005260206000200160009054906101000a900473ffffffffffffffffffffffffffffffffffffffff1673ffffffffffffffffffffffffffffffffffffffff1673ffffffffffffffffffffffffffffffffffffffff16815260200190815260200160002054115b1562001ec65760075469d3c21bcecceda100000094509450505050620020ae565b62001f84600160006006848154811062001f09577f4e487b7100000000000000000000000000000000000000000000000000000000600052603260045260246000fd5b9060005260206000200160009054906101000a900473ffffffffffffffffffffffffffffffffffffffff1673ffffffffffffffffffffffffffffffffffffffff1673ffffffffffffffffffffffffffffffffffffffff16815260200190815260200160002054846200212260201b620017561790919060201c565b925062002044600260006006848154811062001fc9577f4e487b7100000000000000000000000000000000000000000000000000000000600052603260045260246000fd5b9060005260206000200160009054906101000a900473ffffffffffffffffffffffffffffffffffffffff1673ffffffffffffffffffffffffffffffffffffffff1673ffffffffffffffffffffffffffffffffffffffff16815260200190815260200160002054836200212260201b620017561790919060201c565b915080806200205390620026ed565b91505062001d41565b506200208369d3c21bcecceda1000000600754620012c560201b620017141790919060201c565b821015620020a55760075469d3c21bcecceda1000000935093505050620020ae565b81819350935050505b9091565b6000806000806000806000620020ce886200213a60201b60201c565b915091506000620020e46200128b60201b60201c565b90506000806000620020fe8c8686620021df60201b60201c565b92509250925082828288889a509a509a509a509a5050505050505091939590929450565b6000818362002132919062002674565b905092915050565b6000806000620021766103e86200216260085487620012dd60201b6200172a1790919060201c565b620012c560201b620017141790919060201c565b90506000620021b16103e86200219d600b5488620012dd60201b6200172a1790919060201c565b620012c560201b620017141790919060201c565b90506000620021cf83876200212260201b620017561790919060201c565b9050808294509450505050915091565b6000806000806200223585620022216103e86200220d6008548c620012dd60201b6200172a1790919060201c565b620012c560201b620017141790919060201c565b620012dd60201b6200172a1790919060201c565b90506000620022538689620012dd60201b6200172a1790919060201c565b905060006200227183836200212260201b620017561790919060201c565b905060006200228f888a620012dd60201b6200172a1790919060201c565b90508282829650965096505050505093509350939050565b600081519050620022b881620029d4565b92915050565b600080600080600060a08688031215620022d757600080fd5b6000620022e788828901620022a7565b9550506020620022fa88828901620022a7565b94505060406200230d88828901620022a7565b93505060606200232088828901620022a7565b92505060806200233388828901620022a7565b9150509295509295909350565b60006200234f6023836200256d565b91506200235c82620027d1565b604082019050919050565b6000620023766028836200256d565b9150620023838262002820565b604082019050919050565b60006200239d6025836200256d565b9150620023aa826200286f565b604082019050919050565b6000620023c46020836200256d565b9150620023d182620028be565b602082019050919050565b6000620023eb6029836200256d565b9150620023f882620028e7565b604082019050919050565b6000620024126025836200256d565b91506200241f8262002936565b604082019050919050565b6000620024396026836200256d565b9150620024468262002985565b604082019050919050565b6200245c81620026e3565b82525050565b600060208201905081810360008301526200247d8162002340565b9050919050565b600060208201905081810360008301526200249f8162002367565b9050919050565b60006020820190508181036000830152620024c1816200238e565b9050919050565b60006020820190508181036000830152620024e381620023b5565b9050919050565b600060208201905081810360008301526200250581620023dc565b9050919050565b60006020820190508181036000830152620025278162002403565b9050919050565b6000602082019050818103600083015262002549816200242a565b9050919050565b600060208201905062002567600083018462002451565b92915050565b600082825260208201905092915050565b60006200258b82620026e3565b91506200259883620026e3565b9250827fffffffffffffffffffffffffffffffffffffffffffffffffffffffffffffffff03821115620025d057620025cf62002773565b5b828201905092915050565b6000620025e882620026e3565b9150620025f583620026e3565b925082620026085762002607620027a2565b5b828204905092915050565b60006200262082620026e3565b91506200262d83620026e3565b9250817fffffffffffffffffffffffffffffffffffffffffffffffffffffffffffffffff048311821515161562002669576200266862002773565b5b828202905092915050565b60006200268182620026e3565b91506200268e83620026e3565b925082821015620026a457620026a362002773565b5b828203905092915050565b6000620026bc82620026c3565b9050919050565b600073ffffffffffffffffffffffffffffffffffffffff82169050919050565b6000819050919050565b6000620026fa82620026e3565b91507fffffffffffffffffffffffffffffffffffffffffffffffffffffffffffffffff82141562002730576200272f62002773565b5b600182019050919050565b60006200274882620026e3565b91506200275583620026e3565b925082620027685762002767620027a2565b5b828206905092915050565b7f4e487b7100000000000000000000000000000000000000000000000000000000600052601160045260246000fd5b7f4e487b7100000000000000000000000000000000000000000000000000000000600052601260045260246000fd5b7f45524332303a207472616e7366657220746f20746865207a65726f206164647260008201527f6573730000000000000000000000000000000000000000000000000000000000602082015250565b7f4163636f756e7420697320616c7265616479206578636c756465642066726f6d60008201527f2072657761726473000000000000000000000000000000000000000000000000602082015250565b7f4163636f756e7420697320616c7265616479206578636c756465642066726f6d60008201527f2066656573000000000000000000000000000000000000000000000000000000602082015250565b7f4f776e61626c653a2063616c6c6572206973206e6f7420746865206f776e6572600082015250565b7f5472616e7366657220616d6f756e74206d75737420626520677265617465722060008201527f7468616e207a65726f0000000000000000000000000000000000000000000000602082015250565b7f45524332303a207472616e736665722066726f6d20746865207a65726f20616460008201527f6472657373000000000000000000000000000000000000000000000000000000602082015250565b7f416d6f756e74206d757374206265206c657373207468616e20746f74616c207260008201527f6577617264730000000000000000000000000000000000000000000000000000602082015250565b620029df81620026af565b8114620029eb57600080fd5b50565b613c3580620029fe6000396000f3fe608060405234801561001057600080fd5b50600436106101a95760003560e01c80638ee6c4e6116100f9578063d3ea435011610097578063e57f14e111610071578063e57f14e1146104d6578063f2e0f139146104f2578063f2fde38b14610510578063fb4d2fc31461052c576101a9565b8063d3ea435014610458578063d7b4be2414610488578063dd62ed3e146104a6576101a9565b8063a457c2d7116100d3578063a457c2d7146103be578063a5ece941146103ee578063a9059cbb1461040c578063b609995e1461043c576101a9565b80638ee6c4e61461036457806392d1ec081461038257806395d89b41146103a0576101a9565b8063313ce5671161016657806370a082311161014057806370a08231146102ee578063715018a61461031e57806384d31fbe146103285780638da5cb5b14610346576101a9565b8063313ce5671461028257806339509351146102a05780636c842283146102d0576101a9565b806306fdde03146101ae578063095ea7b3146101cc578063111e0376146101fc57806316a2f82a1461021857806318160ddd1461023457806323b872dd14610252575b600080fd5b6101b661054a565b6040516101c391906133ad565b60405180910390f35b6101e660048036038101906101e191906130f9565b610583565b6040516101f39190613392565b60405180910390f35b61021660048036038101906102119190613045565b6105a1565b005b610232600480360381019061022d9190613045565b61083c565b005b61023c61099f565b604051610249919061354f565b60405180910390f35b61026c600480360381019061026791906130aa565b6109b1565b6040516102799190613392565b60405180910390f35b61028a610a8a565b604051610297919061356a565b60405180910390f35b6102ba60048036038101906102b591906130f9565b610a8f565b6040516102c79190613392565b60405180910390f35b6102d8610b42565b6040516102e5919061354f565b60405180910390f35b61030860048036038101906103039190613045565b610b48565b604051610315919061354f565b60405180910390f35b610326610c33565b005b610330610d6d565b60405161033d919061354f565b60405180910390f35b61034e610d73565b60405161035b9190613377565b60405180910390f35b61036c610d9c565b6040516103799190613377565b60405180910390f35b61038a610dc2565b604051610397919061354f565b60405180910390f35b6103a8610dc8565b6040516103b591906133ad565b60405180910390f35b6103d860048036038101906103d391906130f9565b610e01565b6040516103e59190613392565b60405180910390f35b6103f6610ece565b6040516104039190613377565b60405180910390f35b610426600480360381019061042191906130f9565b610ef4565b6040516104339190613392565b60405180910390f35b61045660048036038101906104519190613045565b610f12565b005b610472600480360381019061046d9190613135565b6112e0565b60405161047f919061354f565b60405180910390f35b61049061134e565b60405161049d9190613377565b60405180910390f35b6104c060048036038101906104bb919061306e565b611374565b6040516104cd919061354f565b60405180910390f35b6104f060048036038101906104eb9190613045565b6113fb565b005b6104fa61155f565b604051610507919061354f565b60405180910390f35b61052a60048036038101906105259190613045565b611565565b005b61053461170e565b604051610541919061354f565b60405180910390f35b6040518060400160405280600981526020017f43656c6f48656c7069000000000000000000000000000000000000000000000081525081565b600061059761059061176c565b8484611774565b6001905092915050565b6105a961176c565b73ffffffffffffffffffffffffffffffffffffffff166105c7610d73565b73ffffffffffffffffffffffffffffffffffffffff161461061d576040517f08c379a00000000000000000000000000000000000000000000000000000000081526004016106149061348f565b60405180910390fd5b600560008273ffffffffffffffffffffffffffffffffffffffff1673ffffffffffffffffffffffffffffffffffffffff16815260200190815260200160002060009054906101000a900460ff16156106aa576040517f08c379a00000000000000000000000000000000000000000000000000000000081526004016106a1906133ef565b60405180910390fd5b6000600160008373ffffffffffffffffffffffffffffffffffffffff1673ffffffffffffffffffffffffffffffffffffffff16815260200190815260200160002054111561077e5761073a600160008373ffffffffffffffffffffffffffffffffffffffff1673ffffffffffffffffffffffffffffffffffffffff168152602001908152602001600020546112e0565b600260008373ffffffffffffffffffffffffffffffffffffffff1673ffffffffffffffffffffffffffffffffffffffff168152602001908152602001600020819055505b6001600560008373ffffffffffffffffffffffffffffffffffffffff1673ffffffffffffffffffffffffffffffffffffffff16815260200190815260200160002060006101000a81548160ff0219169083151502179055506006819080600181540180825580915050600190039060005260206000200160009091909190916101000a81548173ffffffffffffffffffffffffffffffffffffffff021916908373ffffffffffffffffffffffffffffffffffffffff16021790555050565b61084461176c565b73ffffffffffffffffffffffffffffffffffffffff16610862610d73565b73ffffffffffffffffffffffffffffffffffffffff16146108b8576040517f08c379a00000000000000000000000000000000000000000000000000000000081526004016108af9061348f565b60405180910390fd5b600460008273ffffffffffffffffffffffffffffffffffffffff1673ffffffffffffffffffffffffffffffffffffffff16815260200190815260200160002060009054906101000a900460ff16610944576040517f08c379a000000000000000000000000000000000000000000000000000000000815260040161093b9061352f565b60405180910390fd5b6000600460008373ffffffffffffffffffffffffffffffffffffffff1673ffffffffffffffffffffffffffffffffffffffff16815260200190815260200160002060006101000a81548160ff02191690831515021790555050565b600069d3c21bcecceda1000000905090565b60006109be84848461193f565b610a7f846109ca61176c565b610a7a85604051806060016040528060288152602001613bb360289139600360008b73ffffffffffffffffffffffffffffffffffffffff1673ffffffffffffffffffffffffffffffffffffffff1681526020019081526020016000206000610a3061176c565b73ffffffffffffffffffffffffffffffffffffffff1673ffffffffffffffffffffffffffffffffffffffff168152602001908152602001600020546121389092919063ffffffff16565b611774565b600190509392505050565b601281565b6000610b38610a9c61176c565b84610b338560036000610aad61176c565b73ffffffffffffffffffffffffffffffffffffffff1673ffffffffffffffffffffffffffffffffffffffff16815260200190815260200160002060008973ffffffffffffffffffffffffffffffffffffffff1673ffffffffffffffffffffffffffffffffffffffff1681526020019081526020016000205461174090919063ffffffff16565b611774565b6001905092915050565b60095481565b6000600560008373ffffffffffffffffffffffffffffffffffffffff1673ffffffffffffffffffffffffffffffffffffffff16815260200190815260200160002060009054906101000a900460ff1615610be357600260008373ffffffffffffffffffffffffffffffffffffffff1673ffffffffffffffffffffffffffffffffffffffff168152602001908152602001600020549050610c2e565b610c2b600160008473ffffffffffffffffffffffffffffffffffffffff1673ffffffffffffffffffffffffffffffffffffffff168152602001908152602001600020546112e0565b90505b919050565b610c3b61176c565b73ffffffffffffffffffffffffffffffffffffffff16610c59610d73565b73ffffffffffffffffffffffffffffffffffffffff1614610caf576040517f08c379a0000000000000000000000000000000000000000000000000000000008152600401610ca69061348f565b60405180910390fd5b600073ffffffffffffffffffffffffffffffffffffffff1660008054906101000a900473ffffffffffffffffffffffffffffffffffffffff1673ffffffffffffffffffffffffffffffffffffffff167f8be0079c531659141344cd1fd0a4f28419497f9722a3daafe3b4186f6b6457e060405160405180910390a360008060006101000a81548173ffffffffffffffffffffffffffffffffffffffff021916908373ffffffffffffffffffffffffffffffffffffffff160217905550565b600c5481565b60008060009054906101000a900473ffffffffffffffffffffffffffffffffffffffff16905090565b600d60009054906101000a900473ffffffffffffffffffffffffffffffffffffffff1681565b60085481565b6040518060400160405280600481526020017f63484c500000000000000000000000000000000000000000000000000000000081525081565b6000610ec4610e0e61176c565b84610ebf85604051806060016040528060258152602001613bdb6025913960036000610e3861176c565b73ffffffffffffffffffffffffffffffffffffffff1673ffffffffffffffffffffffffffffffffffffffff16815260200190815260200160002060008a73ffffffffffffffffffffffffffffffffffffffff1673ffffffffffffffffffffffffffffffffffffffff168152602001908152602001600020546121389092919063ffffffff16565b611774565b6001905092915050565b600f60009054906101000a900473ffffffffffffffffffffffffffffffffffffffff1681565b6000610f08610f0161176c565b848461193f565b6001905092915050565b610f1a61176c565b73ffffffffffffffffffffffffffffffffffffffff16610f38610d73565b73ffffffffffffffffffffffffffffffffffffffff1614610f8e576040517f08c379a0000000000000000000000000000000000000000000000000000000008152600401610f859061348f565b60405180910390fd5b600560008273ffffffffffffffffffffffffffffffffffffffff1673ffffffffffffffffffffffffffffffffffffffff16815260200190815260200160002060009054906101000a900460ff1661101a576040517f08c379a00000000000000000000000000000000000000000000000000000000081526004016110119061340f565b60405180910390fd5b60005b6006805490508110156112dc578173ffffffffffffffffffffffffffffffffffffffff166006828154811061107b577f4e487b7100000000000000000000000000000000000000000000000000000000600052603260045260246000fd5b9060005260206000200160009054906101000a900473ffffffffffffffffffffffffffffffffffffffff1673ffffffffffffffffffffffffffffffffffffffff1614156112c957600660016006805490506110d69190613682565b8154811061110d577f4e487b7100000000000000000000000000000000000000000000000000000000600052603260045260246000fd5b9060005260206000200160009054906101000a900473ffffffffffffffffffffffffffffffffffffffff1660068281548110611172577f4e487b7100000000000000000000000000000000000000000000000000000000600052603260045260246000fd5b9060005260206000200160006101000a81548173ffffffffffffffffffffffffffffffffffffffff021916908373ffffffffffffffffffffffffffffffffffffffff1602179055506000600260008473ffffffffffffffffffffffffffffffffffffffff1673ffffffffffffffffffffffffffffffffffffffff168152602001908152602001600020819055506000600560008473ffffffffffffffffffffffffffffffffffffffff1673ffffffffffffffffffffffffffffffffffffffff16815260200190815260200160002060006101000a81548160ff021916908315150217905550600680548061128f577f4e487b7100000000000000000000000000000000000000000000000000000000600052603160045260246000fd5b6001900381819060005260206000200160006101000a81549073ffffffffffffffffffffffffffffffffffffffff021916905590556112dc565b80806112d49061373e565b91505061101d565b5050565b6000600754821115611327576040517f08c379a000000000000000000000000000000000000000000000000000000000815260040161131e9061350f565b60405180910390fd5b600061133161218d565b9050611346818461171490919063ffffffff16565b915050919050565b600e60009054906101000a900473ffffffffffffffffffffffffffffffffffffffff1681565b6000600360008473ffffffffffffffffffffffffffffffffffffffff1673ffffffffffffffffffffffffffffffffffffffff16815260200190815260200160002060008373ffffffffffffffffffffffffffffffffffffffff1673ffffffffffffffffffffffffffffffffffffffff16815260200190815260200160002054905092915050565b61140361176c565b73ffffffffffffffffffffffffffffffffffffffff16611421610d73565b73ffffffffffffffffffffffffffffffffffffffff1614611477576040517f08c379a000000000000000000000000000000000000000000000000000000000815260040161146e9061348f565b60405180910390fd5b600460008273ffffffffffffffffffffffffffffffffffffffff1673ffffffffffffffffffffffffffffffffffffffff16815260200190815260200160002060009054906101000a900460ff1615611504576040517f08c379a00000000000000000000000000000000000000000000000000000000081526004016114fb9061346f565b60405180910390fd5b6001600460008373ffffffffffffffffffffffffffffffffffffffff1673ffffffffffffffffffffffffffffffffffffffff16815260200190815260200160002060006101000a81548160ff02191690831515021790555050565b600b5481565b61156d61176c565b73ffffffffffffffffffffffffffffffffffffffff1661158b610d73565b73ffffffffffffffffffffffffffffffffffffffff16146115e1576040517f08c379a00000000000000000000000000000000000000000000000000000000081526004016115d89061348f565b60405180910390fd5b600073ffffffffffffffffffffffffffffffffffffffff168173ffffffffffffffffffffffffffffffffffffffff161415611651576040517f08c379a00000000000000000000000000000000000000000000000000000000081526004016116489061342f565b60405180910390fd5b8073ffffffffffffffffffffffffffffffffffffffff1660008054906101000a900473ffffffffffffffffffffffffffffffffffffffff1673ffffffffffffffffffffffffffffffffffffffff167f8be0079c531659141344cd1fd0a4f28419497f9722a3daafe3b4186f6b6457e060405160405180910390a3806000806101000a81548173ffffffffffffffffffffffffffffffffffffffff021916908373ffffffffffffffffffffffffffffffffffffffff16021790555050565b600a5481565b6000818361172291906135f7565b905092915050565b600081836117389190613628565b905092915050565b6000818361174e91906135a1565b905092915050565b600081836117649190613682565b905092915050565b600033905090565b600073ffffffffffffffffffffffffffffffffffffffff168373ffffffffffffffffffffffffffffffffffffffff1614156117e4576040517f08c379a00000000000000000000000000000000000000000000000000000000081526004016117db906134ef565b60405180910390fd5b600073ffffffffffffffffffffffffffffffffffffffff168273ffffffffffffffffffffffffffffffffffffffff161415611854576040517f08c379a000000000000000000000000000000000000000000000000000000000815260040161184b9061344f565b60405180910390fd5b80600360008573ffffffffffffffffffffffffffffffffffffffff1673ffffffffffffffffffffffffffffffffffffffff16815260200190815260200160002060008473ffffffffffffffffffffffffffffffffffffffff1673ffffffffffffffffffffffffffffffffffffffff168152602001908152602001600020819055508173ffffffffffffffffffffffffffffffffffffffff168373ffffffffffffffffffffffffffffffffffffffff167f8c5be1e5ebec7d5bd14f71427d1e84f3dd0314c0f7b2291e5b200ac8c7c3b92583604051611932919061354f565b60405180910390a3505050565b600073ffffffffffffffffffffffffffffffffffffffff168373ffffffffffffffffffffffffffffffffffffffff1614156119af576040517f08c379a00000000000000000000000000000000000000000000000000000000081526004016119a6906134cf565b60405180910390fd5b600073ffffffffffffffffffffffffffffffffffffffff168273ffffffffffffffffffffffffffffffffffffffff161415611a1f576040517f08c379a0000000000000000000000000000000000000000000000000000000008152600401611a16906133cf565b60405180910390fd5b60008111611a62576040517f08c379a0000000000000000000000000000000000000000000000000000000008152600401611a59906134af565b60405180910390fd5b60006008549050600460008573ffffffffffffffffffffffffffffffffffffffff1673ffffffffffffffffffffffffffffffffffffffff16815260200190815260200160002060009054906101000a900460ff1680611b0a5750600460008473ffffffffffffffffffffffffffffffffffffffff1673ffffffffffffffffffffffffffffffffffffffff16815260200190815260200160002060009054906101000a900460ff165b15611b1c576000600881905550611e32565b6000611b476103e8611b396009548661172a90919063ffffffff16565b61171490919063ffffffff16565b90506000611b746103e8611b66600a548761172a90919063ffffffff16565b61171490919063ffffffff16565b90506000611ba16103e8611b93600c548861172a90919063ffffffff16565b61171490919063ffffffff16565b9050611c178360026000600d60009054906101000a900473ffffffffffffffffffffffffffffffffffffffff1673ffffffffffffffffffffffffffffffffffffffff1673ffffffffffffffffffffffffffffffffffffffff1681526020019081526020016000205461174090919063ffffffff16565b60026000600d60009054906101000a900473ffffffffffffffffffffffffffffffffffffffff1673ffffffffffffffffffffffffffffffffffffffff1673ffffffffffffffffffffffffffffffffffffffff16815260200190815260200160002081905550611cf08260026000600e60009054906101000a900473ffffffffffffffffffffffffffffffffffffffff1673ffffffffffffffffffffffffffffffffffffffff1673ffffffffffffffffffffffffffffffffffffffff1681526020019081526020016000205461174090919063ffffffff16565b60026000600e60009054906101000a900473ffffffffffffffffffffffffffffffffffffffff1673ffffffffffffffffffffffffffffffffffffffff1673ffffffffffffffffffffffffffffffffffffffff16815260200190815260200160002081905550611dc98160026000600f60009054906101000a900473ffffffffffffffffffffffffffffffffffffffff1673ffffffffffffffffffffffffffffffffffffffff1673ffffffffffffffffffffffffffffffffffffffff1681526020019081526020016000205461174090919063ffffffff16565b60026000600f60009054906101000a900473ffffffffffffffffffffffffffffffffffffffff1673ffffffffffffffffffffffffffffffffffffffff1673ffffffffffffffffffffffffffffffffffffffff168152602001908152602001600020819055505050505b600560008573ffffffffffffffffffffffffffffffffffffffff1673ffffffffffffffffffffffffffffffffffffffff16815260200190815260200160002060009054906101000a900460ff168015611ed55750600560008473ffffffffffffffffffffffffffffffffffffffff1673ffffffffffffffffffffffffffffffffffffffff16815260200190815260200160002060009054906101000a900460ff16155b15611eea57611ee58484846121b8565b612121565b600560008573ffffffffffffffffffffffffffffffffffffffff1673ffffffffffffffffffffffffffffffffffffffff16815260200190815260200160002060009054906101000a900460ff16158015611f8d5750600560008473ffffffffffffffffffffffffffffffffffffffff1673ffffffffffffffffffffffffffffffffffffffff16815260200190815260200160002060009054906101000a900460ff165b15611fa257611f9d848484612418565b612120565b600560008573ffffffffffffffffffffffffffffffffffffffff1673ffffffffffffffffffffffffffffffffffffffff16815260200190815260200160002060009054906101000a900460ff161580156120465750600560008473ffffffffffffffffffffffffffffffffffffffff1673ffffffffffffffffffffffffffffffffffffffff16815260200190815260200160002060009054906101000a900460ff16155b1561205b57612056848484612678565b61211f565b600560008573ffffffffffffffffffffffffffffffffffffffff1673ffffffffffffffffffffffffffffffffffffffff16815260200190815260200160002060009054906101000a900460ff1680156120fd5750600560008473ffffffffffffffffffffffffffffffffffffffff1673ffffffffffffffffffffffffffffffffffffffff16815260200190815260200160002060009054906101000a900460ff165b156121125761210d848484612843565b61211e565b61211d848484612678565b5b5b5b5b600854811461213257806008819055505b50505050565b6000838311158290612180576040517f08c379a000000000000000000000000000000000000000000000000000000000815260040161217791906133ad565b60405180910390fd5b5082840390509392505050565b600080600061219a612b38565b915091506121b1818361171490919063ffffffff16565b9250505090565b6000806000806121c785612ea3565b50935093509350935061222285600260008a73ffffffffffffffffffffffffffffffffffffffff1673ffffffffffffffffffffffffffffffffffffffff1681526020019081526020016000205461175690919063ffffffff16565b600260008973ffffffffffffffffffffffffffffffffffffffff1673ffffffffffffffffffffffffffffffffffffffff168152602001908152602001600020819055506122b784600160008a73ffffffffffffffffffffffffffffffffffffffff1673ffffffffffffffffffffffffffffffffffffffff1681526020019081526020016000205461175690919063ffffffff16565b600160008973ffffffffffffffffffffffffffffffffffffffff1673ffffffffffffffffffffffffffffffffffffffff1681526020019081526020016000208190555061234c83600160008973ffffffffffffffffffffffffffffffffffffffff1673ffffffffffffffffffffffffffffffffffffffff1681526020019081526020016000205461174090919063ffffffff16565b600160008873ffffffffffffffffffffffffffffffffffffffff1673ffffffffffffffffffffffffffffffffffffffff168152602001908152602001600020819055506123a48260075461175690919063ffffffff16565b6007819055508573ffffffffffffffffffffffffffffffffffffffff168773ffffffffffffffffffffffffffffffffffffffff167fddf252ad1be2c89b69c2b068fc378daa952ba7f163c4a11628f55a4df523b3ef83604051612407919061354f565b60405180910390a350505050505050565b60008060008061242785612ea3565b50935093509350935061248284600160008a73ffffffffffffffffffffffffffffffffffffffff1673ffffffffffffffffffffffffffffffffffffffff1681526020019081526020016000205461175690919063ffffffff16565b600160008973ffffffffffffffffffffffffffffffffffffffff1673ffffffffffffffffffffffffffffffffffffffff1681526020019081526020016000208190555061251781600260008973ffffffffffffffffffffffffffffffffffffffff1673ffffffffffffffffffffffffffffffffffffffff1681526020019081526020016000205461174090919063ffffffff16565b600260008873ffffffffffffffffffffffffffffffffffffffff1673ffffffffffffffffffffffffffffffffffffffff168152602001908152602001600020819055506125ac83600160008973ffffffffffffffffffffffffffffffffffffffff1673ffffffffffffffffffffffffffffffffffffffff1681526020019081526020016000205461174090919063ffffffff16565b600160008873ffffffffffffffffffffffffffffffffffffffff1673ffffffffffffffffffffffffffffffffffffffff168152602001908152602001600020819055506126048260075461175690919063ffffffff16565b6007819055508573ffffffffffffffffffffffffffffffffffffffff168773ffffffffffffffffffffffffffffffffffffffff167fddf252ad1be2c89b69c2b068fc378daa952ba7f163c4a11628f55a4df523b3ef83604051612667919061354f565b60405180910390a350505050505050565b60008060008061268785612ea3565b5093509350935093506126e284600160008a73ffffffffffffffffffffffffffffffffffffffff1673ffffffffffffffffffffffffffffffffffffffff1681526020019081526020016000205461175690919063ffffffff16565b600160008973ffffffffffffffffffffffffffffffffffffffff1673ffffffffffffffffffffffffffffffffffffffff1681526020019081526020016000208190555061277783600160008973ffffffffffffffffffffffffffffffffffffffff1673ffffffffffffffffffffffffffffffffffffffff1681526020019081526020016000205461174090919063ffffffff16565b600160008873ffffffffffffffffffffffffffffffffffffffff1673ffffffffffffffffffffffffffffffffffffffff168152602001908152602001600020819055506127cf8260075461175690919063ffffffff16565b6007819055508573ffffffffffffffffffffffffffffffffffffffff168773ffffffffffffffffffffffffffffffffffffffff167fddf252ad1be2c89b69c2b068fc378daa952ba7f163c4a11628f55a4df523b3ef83604051612832919061354f565b60405180910390a350505050505050565b60008060008061285285612ea3565b5093509350935093506128ad85600260008a73ffffffffffffffffffffffffffffffffffffffff1673ffffffffffffffffffffffffffffffffffffffff1681526020019081526020016000205461175690919063ffffffff16565b600260008973ffffffffffffffffffffffffffffffffffffffff1673ffffffffffffffffffffffffffffffffffffffff1681526020019081526020016000208190555061294284600160008a73ffffffffffffffffffffffffffffffffffffffff1673ffffffffffffffffffffffffffffffffffffffff1681526020019081526020016000205461175690919063ffffffff16565b600160008973ffffffffffffffffffffffffffffffffffffffff1673ffffffffffffffffffffffffffffffffffffffff168152602001908152602001600020819055506129d781600260008973ffffffffffffffffffffffffffffffffffffffff1673ffffffffffffffffffffffffffffffffffffffff1681526020019081526020016000205461174090919063ffffffff16565b600260008873ffffffffffffffffffffffffffffffffffffffff1673ffffffffffffffffffffffffffffffffffffffff16815260200190815260200160002081905550612a6c83600160008973ffffffffffffffffffffffffffffffffffffffff1673ffffffffffffffffffffffffffffffffffffffff1681526020019081526020016000205461174090919063ffffffff16565b600160008873ffffffffffffffffffffffffffffffffffffffff1673ffffffffffffffffffffffffffffffffffffffff16815260200190815260200160002081905550612ac48260075461175690919063ffffffff16565b6007819055508573ffffffffffffffffffffffffffffffffffffffff168773ffffffffffffffffffffffffffffffffffffffff167fddf252ad1be2c89b69c2b068fc378daa952ba7f163c4a11628f55a4df523b3ef83604051612b27919061354f565b60405180910390a350505050505050565b60008060006007549050600069d3c21bcecceda1000000905060005b600680549050811015612e5657826001600060068481548110612ba0577f4e487b7100000000000000000000000000000000000000000000000000000000600052603260045260246000fd5b9060005260206000200160009054906101000a900473ffffffffffffffffffffffffffffffffffffffff1673ffffffffffffffffffffffffffffffffffffffff1673ffffffffffffffffffffffffffffffffffffffff168152602001908152602001600020541180612cb45750816002600060068481548110612c4c577f4e487b7100000000000000000000000000000000000000000000000000000000600052603260045260246000fd5b9060005260206000200160009054906101000a900473ffffffffffffffffffffffffffffffffffffffff1673ffffffffffffffffffffffffffffffffffffffff1673ffffffffffffffffffffffffffffffffffffffff16815260200190815260200160002054115b15612cd35760075469d3c21bcecceda100000094509450505050612e9f565b612d896001600060068481548110612d14577f4e487b7100000000000000000000000000000000000000000000000000000000600052603260045260246000fd5b9060005260206000200160009054906101000a900473ffffffffffffffffffffffffffffffffffffffff1673ffffffffffffffffffffffffffffffffffffffff1673ffffffffffffffffffffffffffffffffffffffff168152602001908152602001600020548461175690919063ffffffff16565b9250612e416002600060068481548110612dcc577f4e487b7100000000000000000000000000000000000000000000000000000000600052603260045260246000fd5b9060005260206000200160009054906101000a900473ffffffffffffffffffffffffffffffffffffffff1673ffffffffffffffffffffffffffffffffffffffff1673ffffffffffffffffffffffffffffffffffffffff168152602001908152602001600020548361175690919063ffffffff16565b91508080612e4e9061373e565b915050612b54565b50612e7669d3c21bcecceda100000060075461171490919063ffffffff16565b821015612e965760075469d3c21bcecceda1000000935093505050612e9f565b81819350935050505b9091565b6000806000806000806000612eb788612efb565b915091506000612ec561218d565b90506000806000612ed78c8686612f7d565b92509250925082828288889a509a509a509a509a5050505050505091939590929450565b6000806000612f296103e8612f1b6008548761172a90919063ffffffff16565b61171490919063ffffffff16565b90506000612f566103e8612f48600b548861172a90919063ffffffff16565b61171490919063ffffffff16565b90506000612f6d838761175690919063ffffffff16565b9050808294509450505050915091565b600080600080612fbe85612fb06103e8612fa26008548c61172a90919063ffffffff16565b61171490919063ffffffff16565b61172a90919063ffffffff16565b90506000612fd5868961172a90919063ffffffff16565b90506000612fec838361175690919063ffffffff16565b90506000613003888a61172a90919063ffffffff16565b90508282829650965096505050505093509350939050565b60008135905061302a81613b84565b92915050565b60008135905061303f81613b9b565b92915050565b60006020828403121561305757600080fd5b60006130658482850161301b565b91505092915050565b6000806040838503121561308157600080fd5b600061308f8582860161301b565b92505060206130a08582860161301b565b9150509250929050565b6000806000606084860312156130bf57600080fd5b60006130cd8682870161301b565b93505060206130de8682870161301b565b92505060406130ef86828701613030565b9150509250925092565b6000806040838503121561310c57600080fd5b600061311a8582860161301b565b925050602061312b85828601613030565b9150509250929050565b60006020828403121561314757600080fd5b600061315584828501613030565b91505092915050565b613167816136b6565b82525050565b613176816136c8565b82525050565b600061318782613585565b6131918185613590565b93506131a181856020860161370b565b6131aa816137e5565b840191505092915050565b60006131c2602383613590565b91506131cd826137f6565b604082019050919050565b60006131e5602883613590565b91506131f082613845565b604082019050919050565b6000613208602683613590565b915061321382613894565b604082019050919050565b600061322b602683613590565b9150613236826138e3565b604082019050919050565b600061324e602283613590565b915061325982613932565b604082019050919050565b6000613271602583613590565b915061327c82613981565b604082019050919050565b6000613294602083613590565b915061329f826139d0565b602082019050919050565b60006132b7602983613590565b91506132c2826139f9565b604082019050919050565b60006132da602583613590565b91506132e582613a48565b604082019050919050565b60006132fd602483613590565b915061330882613a97565b604082019050919050565b6000613320602683613590565b915061332b82613ae6565b604082019050919050565b6000613343602383613590565b915061334e82613b35565b604082019050919050565b613362816136f4565b82525050565b613371816136fe565b82525050565b600060208201905061338c600083018461315e565b92915050565b60006020820190506133a7600083018461316d565b92915050565b600060208201905081810360008301526133c7818461317c565b905092915050565b600060208201905081810360008301526133e8816131b5565b9050919050565b60006020820190508181036000830152613408816131d8565b9050919050565b60006020820190508181036000830152613428816131fb565b9050919050565b600060208201905081810360008301526134488161321e565b9050919050565b6000602082019050818103600083015261346881613241565b9050919050565b6000602082019050818103600083015261348881613264565b9050919050565b600060208201905081810360008301526134a881613287565b9050919050565b600060208201905081810360008301526134c8816132aa565b9050919050565b600060208201905081810360008301526134e8816132cd565b9050919050565b60006020820190508181036000830152613508816132f0565b9050919050565b6000602082019050818103600083015261352881613313565b9050919050565b6000602082019050818103600083015261354881613336565b9050919050565b60006020820190506135646000830184613359565b92915050565b600060208201905061357f6000830184613368565b92915050565b600081519050919050565b600082825260208201905092915050565b60006135ac826136f4565b91506135b7836136f4565b9250827fffffffffffffffffffffffffffffffffffffffffffffffffffffffffffffffff038211156135ec576135eb613787565b5b828201905092915050565b6000613602826136f4565b915061360d836136f4565b92508261361d5761361c6137b6565b5b828204905092915050565b6000613633826136f4565b915061363e836136f4565b9250817fffffffffffffffffffffffffffffffffffffffffffffffffffffffffffffffff048311821515161561367757613676613787565b5b828202905092915050565b600061368d826136f4565b9150613698836136f4565b9250828210156136ab576136aa613787565b5b828203905092915050565b60006136c1826136d4565b9050919050565b60008115159050919050565b600073ffffffffffffffffffffffffffffffffffffffff82169050919050565b6000819050919050565b600060ff82169050919050565b60005b8381101561372957808201518184015260208101905061370e565b83811115613738576000848401525b50505050565b6000613749826136f4565b91507fffffffffffffffffffffffffffffffffffffffffffffffffffffffffffffffff82141561377c5761377b613787565b5b600182019050919050565b7f4e487b7100000000000000000000000000000000000000000000000000000000600052601160045260246000fd5b7f4e487b7100000000000000000000000000000000000000000000000000000000600052601260045260246000fd5b6000601f19601f8301169050919050565b7f45524332303a207472616e7366657220746f20746865207a65726f206164647260008201527f6573730000000000000000000000000000000000000000000000000000000000602082015250565b7f4163636f756e7420697320616c7265616479206578636c756465642066726f6d60008201527f2072657761726473000000000000000000000000000000000000000000000000602082015250565b7f4163636f756e7420697320616c726561647920696e636c7564656420696e207260008201527f6577617264730000000000000000000000000000000000000000000000000000602082015250565b7f4f776e61626c653a206e6577206f776e657220697320746865207a65726f206160008201527f6464726573730000000000000000000000000000000000000000000000000000602082015250565b7f45524332303a20617070726f766520746f20746865207a65726f20616464726560008201527f7373000000000000000000000000000000000000000000000000000000000000602082015250565b7f4163636f756e7420697320616c7265616479206578636c756465642066726f6d60008201527f2066656573000000000000000000000000000000000000000000000000000000602082015250565b7f4f776e61626c653a2063616c6c6572206973206e6f7420746865206f776e6572600082015250565b7f5472616e7366657220616d6f756e74206d75737420626520677265617465722060008201527f7468616e207a65726f0000000000000000000000000000000000000000000000602082015250565b7f45524332303a207472616e736665722066726f6d20746865207a65726f20616460008201527f6472657373000000000000000000000000000000000000000000000000000000602082015250565b7f45524332303a20617070726f76652066726f6d20746865207a65726f2061646460008201527f7265737300000000000000000000000000000000000000000000000000000000602082015250565b7f416d6f756e74206d757374206265206c657373207468616e20746f74616c207260008201527f6577617264730000000000000000000000000000000000000000000000000000602082015250565b7f4163636f756e7420697320616c726561647920696e636c7564656420696e206660008201527f6565730000000000000000000000000000000000000000000000000000000000602082015250565b613b8d816136b6565b8114613b9857600080fd5b50565b613ba4816136f4565b8114613baf57600080fd5b5056fe45524332303a207472616e7366657220616d6f756e74206578636565647320616c6c6f77616e636545524332303a2064656372656173656420616c6c6f77616e63652062656c6f77207a65726fa26469706673582212204b7ecb6493c1e173c0acd3626d1e66f8051d5ae38822167bce7b852f55fe227664736f6c63430008030033",
  "immutableReferences": {},
  "source": "// SPDX-License-Identifier: MIT\n\npragma solidity ^0.8.0;\n\nimport \"@openzeppelin/contracts/token/ERC20/IERC20.sol\";\nimport \"@openzeppelin/contracts/utils/math/SafeMath.sol\";\nimport \"@openzeppelin/contracts/utils/Address.sol\";\nimport \"@openzeppelin/contracts/access/Ownable.sol\";\n\ninterface IFactory {\n    function createPair(address tokenA, address tokenB) external returns (address pair);\n}\n\ncontract CeloHelpi is IERC20, Ownable {\n    using SafeMath for uint256;\n    using Address for address;\n\n    mapping(address => uint256) private rewardsBalance;\n    mapping(address => uint256) private actualBalance;\n    mapping(address => mapping(address => uint256)) private allowances;\n\n    mapping(address => bool) private isExcludedFromFees;\n    mapping(address => bool) private isExcludedFromRewards;\n    address[] private excluded;\n\n    uint256 private constant MAX = ~uint256(0);\n    uint256 private constant TOTAL_SUPPLY = 1000000 ether;\n    uint256 private rewardsTotal = (MAX - (MAX % TOTAL_SUPPLY));\n    \n    string public constant name = \"CeloHelpi\";\n    string public constant symbol = \"cHLP\";\n    uint8 public constant decimals = 18;\n\n    uint256 public totalTaxPermille = 30;\n    uint256 public liquidityMiningTaxPermille = 12;\n    uint256 public stakingTaxPermille = 5;\n    uint256 public holdersTaxPermille = 8;\n    uint256 public marketingTaxPermille = 5;\n\n    address public liquidityMiningAddress;\n    address public stakingAddress;\n    address public marketingAddress;\n\n    constructor(address _liquidityMiningAddress, address _stakingAddress, address _marketingAddress, address _factoryAddress, address _weth) {\n        liquidityMiningAddress = _liquidityMiningAddress;\n        stakingAddress = _stakingAddress;\n        marketingAddress = _marketingAddress;\n        \n        rewardsBalance[_msgSender()] = rewardsTotal;\n        emit Transfer(address(0), _msgSender(), TOTAL_SUPPLY);\n        \n        excludeFromFees(liquidityMiningAddress);\n        excludeFromRewards(liquidityMiningAddress);\n        excludeFromFees(stakingAddress);\n        excludeFromRewards(stakingAddress);\n        excludeFromFees(marketingAddress);\n        excludeFromRewards(marketingAddress);\n        excludeFromFees(_msgSender());\n        excludeFromRewards(_msgSender());\n        \n        transfer(liquidityMiningAddress, 500000 ether);\n        transfer(stakingAddress, 210000 ether);\n        transfer(marketingAddress, 70000 ether);\n        \n        // address pairAddress = IFactory(_factoryAddress).createPair(_weth, address(this));\n        // excludeFromRewards(pairAddress);\n    }\n\n    function totalSupply() external pure override returns (uint256) {\n        return TOTAL_SUPPLY;\n    }\n\n    function balanceOf(address account) public view override returns (uint256) {\n        if (isExcludedFromRewards[account]) {\n            return actualBalance[account];\n        }\n        return calculateRewards(rewardsBalance[account]);\n    }\n\n    function transfer(address recipient, uint256 amount) public override returns (bool) {\n        _transfer(_msgSender(), recipient, amount);\n        return true;\n    }\n\n    function allowance(address owner, address spender) public view override returns (uint256) {\n        return allowances[owner][spender];\n    }\n\n    function approve(address spender, uint256 amount) public override returns (bool) {\n        _approve(_msgSender(), spender, amount);\n        return true;\n    }\n\n    function transferFrom(address sender, address recipient, uint256 amount) public override returns (bool) {\n        _transfer(sender, recipient, amount);\n        _approve(sender, _msgSender(), allowances[sender][_msgSender()].sub(amount, \"ERC20: transfer amount exceeds allowance\"));\n        return true;\n    }\n\n    function increaseAllowance(address spender, uint256 addedValue) public virtual returns (bool) {\n        _approve(_msgSender(), spender, allowances[_msgSender()][spender].add(addedValue));\n        return true;\n    }\n\n    function decreaseAllowance(address spender, uint256 subtractedValue) public virtual returns (bool) {\n        _approve(_msgSender(), spender, allowances[_msgSender()][spender].sub(subtractedValue, \"ERC20: decreased allowance below zero\"));\n        return true;\n    }\n\n    function excludeFromFees(address account) public onlyOwner() {\n        require(!isExcludedFromFees[account], \"Account is already excluded from fees\");\n        isExcludedFromFees[account] = true;\n    }\n\n    function includeInFees(address account) public onlyOwner() {\n        require(isExcludedFromFees[account], \"Account is already included in fees\");\n        isExcludedFromFees[account] = false;\n    }\n\n    function excludeFromRewards(address account) public onlyOwner() {\n        require(!isExcludedFromRewards[account], \"Account is already excluded from rewards\");\n        if (rewardsBalance[account] > 0) {\n            actualBalance[account] = calculateRewards(rewardsBalance[account]);\n        }\n\n        isExcludedFromRewards[account] = true;\n        excluded.push(account);\n    }\n\n    function includeInRewards(address account) public onlyOwner() {\n        require(isExcludedFromRewards[account], \"Account is already included in rewards\");\n\n        for (uint256 i = 0; i < excluded.length; i++) {\n            if (excluded[i] == account) {\n                excluded[i] = excluded[excluded.length - 1];\n                actualBalance[account] = 0;\n                isExcludedFromRewards[account] = false;\n                excluded.pop();\n                break;\n            }\n        }\n    }\n\n    function _approve(address owner, address spender, uint256 amount) private {\n        require(owner != address(0), \"ERC20: approve from the zero address\");\n        require(spender != address(0), \"ERC20: approve to the zero address\");\n\n        allowances[owner][spender] = amount;\n        emit Approval(owner, spender, amount);\n    }\n\n    function _transfer(address sender, address recipient, uint256 amount) private {\n        require(sender != address(0), \"ERC20: transfer from the zero address\");\n        require(recipient != address(0), \"ERC20: transfer to the zero address\");\n        require(amount > 0, \"Transfer amount must be greater than zero\");\n\n        uint256 _totalTaxPermille = totalTaxPermille;\n        if (isExcludedFromFees[sender] || isExcludedFromFees[recipient]) {\n            totalTaxPermille = 0;\n        } else {\n            uint256 liquidityMiningFee = amount.mul(liquidityMiningTaxPermille).div(1000);\n            uint256 stakingFee = amount.mul(stakingTaxPermille).div(1000);\n            uint256 marketingFee = amount.mul(marketingTaxPermille).div(1000);\n            actualBalance[liquidityMiningAddress] = actualBalance[liquidityMiningAddress].add(liquidityMiningFee);\n            actualBalance[stakingAddress] = actualBalance[stakingAddress].add(stakingFee);\n            actualBalance[marketingAddress] = actualBalance[marketingAddress].add(marketingFee);\n        }\n\n        if (isExcludedFromRewards[sender] && !isExcludedFromRewards[recipient]) {\n            transferWithoutSenderRewards(sender, recipient, amount);\n        } else if (!isExcludedFromRewards[sender] && isExcludedFromRewards[recipient]) {\n            transferWithRecipientRewards(sender, recipient, amount);\n        } else if (!isExcludedFromRewards[sender] && !isExcludedFromRewards[recipient]) {\n            transferWithRewards(sender, recipient, amount);\n        } else if (isExcludedFromRewards[sender] && isExcludedFromRewards[recipient]) {\n            transferWithoutRewards(sender, recipient, amount);\n        } else {\n            transferWithRewards(sender, recipient, amount);\n        }\n\n        if (_totalTaxPermille != totalTaxPermille) {\n            totalTaxPermille = _totalTaxPermille;\n        }\n    }\n\n    function transferWithRewards(address sender, address recipient, uint256 actualAmount) private {\n        (uint256 rewardAmount, uint256 rewardTransferAmount, uint256 rewardFee, uint256 actualTransferAmount, ) = getValues(actualAmount);\n\n        rewardsBalance[sender] = rewardsBalance[sender].sub(rewardAmount);\n        rewardsBalance[recipient] = rewardsBalance[recipient].add(rewardTransferAmount);\n        rewardsTotal = rewardsTotal.sub(rewardFee);\n        emit Transfer(sender, recipient, actualTransferAmount);\n    }\n\n    function transferWithRecipientRewards(address sender, address recipient, uint256 actualAmount) private {\n        (uint256 rewardAmount, uint256 rewardTransferAmount, uint256 rewardFee, uint256 actualTransferAmount, ) = getValues(actualAmount);\n\n        rewardsBalance[sender] = rewardsBalance[sender].sub(rewardAmount);\n        actualBalance[recipient] = actualBalance[recipient].add(actualTransferAmount);\n        rewardsBalance[recipient] = rewardsBalance[recipient].add(rewardTransferAmount);\n        rewardsTotal = rewardsTotal.sub(rewardFee);\n        emit Transfer(sender, recipient, actualTransferAmount);\n    }\n\n    function transferWithoutSenderRewards(address sender, address recipient, uint256 actualAmount) private {\n        (uint256 rewardAmount, uint256 rewardTransferAmount, uint256 rewardFee, uint256 actualTransferAmount, ) = getValues(actualAmount);\n\n        actualBalance[sender] = actualBalance[sender].sub(actualAmount);\n        rewardsBalance[sender] = rewardsBalance[sender].sub(rewardAmount);\n        rewardsBalance[recipient] = rewardsBalance[recipient].add(rewardTransferAmount);\n        rewardsTotal = rewardsTotal.sub(rewardFee);\n        emit Transfer(sender, recipient, actualTransferAmount);\n    }\n\n    function transferWithoutRewards(address sender, address recipient, uint256 actualAmount) private {\n        (uint256 rewardAmount, uint256 rewardTransferAmount, uint256 rewardFee, uint256 actualTransferAmount, ) = getValues(actualAmount);\n\n        actualBalance[sender] = actualBalance[sender].sub(actualAmount);\n        rewardsBalance[sender] = rewardsBalance[sender].sub(rewardAmount);\n        actualBalance[recipient] = actualBalance[recipient].add(actualTransferAmount);\n        rewardsBalance[recipient] = rewardsBalance[recipient].add(rewardTransferAmount);\n        rewardsTotal = rewardsTotal.sub(rewardFee);\n        emit Transfer(sender, recipient, actualTransferAmount);\n    }\n\n    function calculateRewards(uint256 rewardAmount) public view returns (uint256) {\n        require(rewardAmount <= rewardsTotal, \"Amount must be less than total rewards\");\n        uint256 rewardsRate = getRewardsRate();\n        return rewardAmount.div(rewardsRate);\n    }\n\n    function getValues(uint256 actualAmount) private view returns (uint256, uint256, uint256, uint256, uint256) {\n        (uint256 actualTransferAmount, uint256 actualFee) = getActualValues(actualAmount);\n        uint256 rewardsRate = getRewardsRate();\n        (uint256 rewardAmount, uint256 rewardTransferAmount, uint256 rewardFee) = getRewardValues(actualAmount, actualFee, rewardsRate);\n\n        return (rewardAmount, rewardTransferAmount, rewardFee, actualTransferAmount, actualFee);\n    }\n\n    function getActualValues(uint256 actualAmount) private view returns (uint256, uint256) {\n        uint256 actualFee = actualAmount.mul(totalTaxPermille).div(1000);\n        uint256 actualHolderFee = actualAmount.mul(holdersTaxPermille).div(1000);\n        uint256 actualTransferAmount = actualAmount.sub(actualFee);\n        return (actualTransferAmount, actualHolderFee);\n    }\n\n    function getRewardValues(uint256 actualAmount, uint256 actualHolderFee, uint256 rewardsRate) private view returns (uint256, uint256, uint256)\n    {\n        uint256 actualFee = actualAmount.mul(totalTaxPermille).div(1000).mul(rewardsRate);\n        uint256 rewardAmount = actualAmount.mul(rewardsRate);\n        uint256 rewardTransferAmount = rewardAmount.sub(actualFee);\n        uint256 rewardFee = actualHolderFee.mul(rewardsRate);\n        return (rewardAmount, rewardTransferAmount, rewardFee);\n    }\n\n    function getRewardsRate() private view returns (uint256) {\n        (uint256 rewardsSupply, uint256 actualSupply) = getCurrentSupply();\n        return rewardsSupply.div(actualSupply);\n    }\n\n    function getCurrentSupply() private view returns (uint256, uint256) {\n        uint256 rewardsSupply = rewardsTotal;\n        uint256 actualSupply = TOTAL_SUPPLY;\n\n        for (uint256 i = 0; i < excluded.length; i++) {\n            if (rewardsBalance[excluded[i]] > rewardsSupply || actualBalance[excluded[i]] > actualSupply) {\n                return (rewardsTotal, TOTAL_SUPPLY);\n            }\n\n            rewardsSupply = rewardsSupply.sub(rewardsBalance[excluded[i]]);\n            actualSupply = actualSupply.sub(actualBalance[excluded[i]]);\n        }\n\n        if (rewardsSupply < rewardsTotal.div(TOTAL_SUPPLY)) {\n            return (rewardsTotal, TOTAL_SUPPLY);\n        }\n\n        return (rewardsSupply, actualSupply);\n    }\n}",
  "sourcePath": "/home/syta/Documents/repos/crypto/helpi/contracts/Celo-Helpi.sol",
  "compiler": {
    "name": "solc",
    "version": "0.8.3+commit.8d00100c.Emscripten.clang"
  },
  "schemaVersion": "3.3.4",
  "updatedAt": "2021-04-15T02:30:52.143Z",
  "networkType": "ethereum",
  "devdoc": {
    "kind": "dev",
    "methods": {
      "allowance(address,address)": {
        "details": "Returns the remaining number of tokens that `spender` will be allowed to spend on behalf of `owner` through {transferFrom}. This is zero by default. This value changes when {approve} or {transferFrom} are called."
      },
      "approve(address,uint256)": {
        "details": "Sets `amount` as the allowance of `spender` over the caller's tokens. Returns a boolean value indicating whether the operation succeeded. IMPORTANT: Beware that changing an allowance with this method brings the risk that someone may use both the old and the new allowance by unfortunate transaction ordering. One possible solution to mitigate this race condition is to first reduce the spender's allowance to 0 and set the desired value afterwards: https://github.com/ethereum/EIPs/issues/20#issuecomment-263524729 Emits an {Approval} event."
      },
      "balanceOf(address)": {
        "details": "Returns the amount of tokens owned by `account`."
      },
      "owner()": {
        "details": "Returns the address of the current owner."
      },
      "renounceOwnership()": {
        "details": "Leaves the contract without owner. It will not be possible to call `onlyOwner` functions anymore. Can only be called by the current owner. NOTE: Renouncing ownership will leave the contract without an owner, thereby removing any functionality that is only available to the owner."
      },
      "totalSupply()": {
        "details": "Returns the amount of tokens in existence."
      },
      "transfer(address,uint256)": {
        "details": "Moves `amount` tokens from the caller's account to `recipient`. Returns a boolean value indicating whether the operation succeeded. Emits a {Transfer} event."
      },
      "transferFrom(address,address,uint256)": {
        "details": "Moves `amount` tokens from `sender` to `recipient` using the allowance mechanism. `amount` is then deducted from the caller's allowance. Returns a boolean value indicating whether the operation succeeded. Emits a {Transfer} event."
      },
      "transferOwnership(address)": {
        "details": "Transfers ownership of the contract to a new account (`newOwner`). Can only be called by the current owner."
      }
    },
    "version": 1
  },
  "userdoc": {
    "kind": "user",
    "methods": {},
    "version": 1
  }
}